{
  "_format": "hh-sol-artifact-1",
  "contractName": "QRPaymentContract",
  "sourceName": "contracts/QRPaymentContract.sol",
  "abi": [
    {
      "inputs": [],
      "stateMutability": "nonpayable",
      "type": "constructor"
    },
    {
      "anonymous": false,
      "inputs": [
        {
          "indexed": true,
          "internalType": "bytes32",
          "name": "paymentId",
          "type": "bytes32"
        },
        {
          "indexed": true,
          "internalType": "bytes32",
          "name": "tariffId",
          "type": "bytes32"
        },
        {
          "indexed": true,
          "internalType": "address",
          "name": "from",
          "type": "address"
        },
        {
          "indexed": false,
          "internalType": "uint256",
          "name": "amount",
          "type": "uint256"
        },
        {
          "indexed": false,
          "internalType": "uint256",
          "name": "timestamp",
          "type": "uint256"
        }
      ],
      "name": "PaymentReceived",
      "type": "event"
    },
    {
      "inputs": [],
      "name": "getBalance",
      "outputs": [
        {
          "internalType": "uint256",
          "name": "",
          "type": "uint256"
        }
      ],
      "stateMutability": "view",
      "type": "function"
    },
    {
      "inputs": [],
      "name": "owner",
      "outputs": [
        {
          "internalType": "address",
          "name": "",
          "type": "address"
        }
      ],
      "stateMutability": "view",
      "type": "function"
    },
    {
      "inputs": [
        {
          "internalType": "bytes32",
          "name": "paymentId",
          "type": "bytes32"
        },
        {
          "internalType": "bytes32",
          "name": "tariffId",
          "type": "bytes32"
        },
        {
          "internalType": "uint256",
          "name": "price",
          "type": "uint256"
        }
      ],
      "name": "payForTariff",
      "outputs": [],
      "stateMutability": "payable",
      "type": "function"
    },
    {
      "inputs": [
        {
          "internalType": "bytes32",
          "name": "",
          "type": "bytes32"
        }
      ],
      "name": "processedPayments",
      "outputs": [
        {
          "internalType": "bool",
          "name": "",
          "type": "bool"
        }
      ],
      "stateMutability": "view",
      "type": "function"
    },
    {
      "inputs": [],
      "name": "withdrawAll",
      "outputs": [],
      "stateMutability": "nonpayable",
      "type": "function"
    }
  ],
  "bytecode": "0x6080604052348015600f57600080fd5b50336000806101000a81548173ffffffffffffffffffffffffffffffffffffffff021916908373ffffffffffffffffffffffffffffffffffffffff1602179055506109fc8061005f6000396000f3fe60806040526004361061004a5760003560e01c806312065fe01461004f578063827399d61461007a578063853828b6146100965780638da5cb5b146100ad578063f3f247eb146100d8575b600080fd5b34801561005b57600080fd5b50610064610115565b60405161007191906104b7565b60405180910390f35b610094600480360381019061008f9190610539565b61011d565b005b3480156100a257600080fd5b506100ab6102b3565b005b3480156100b957600080fd5b506100c261045a565b6040516100cf91906105cd565b60405180910390f35b3480156100e457600080fd5b506100ff60048036038101906100fa91906105e8565b61047e565b60405161010c9190610630565b60405180910390f35b600047905090565b60003411610160576040517f08c379a0000000000000000000000000000000000000000000000000000000008152600401610157906106ce565b60405180910390fd5b8034146101a2576040517f08c379a00000000000000000000000000000000000000000000000000000000081526004016101999061073a565b60405180910390fd5b600083836040516020016101b792919061077b565b6040516020818303038152906040528051906020012090506001600082815260200190815260200160002060009054906101000a900460ff1615610230576040517f08c379a0000000000000000000000000000000000000000000000000000000008152600401610227906107f3565b60405180910390fd5b600180600083815260200190815260200160002060006101000a81548160ff0219169083151502179055503373ffffffffffffffffffffffffffffffffffffffff1683857ffc78c392d5be56bd8417063477676a21ed0f849e5d579c1ea191d61b2d34941734426040516102a5929190610813565b60405180910390a450505050565b60008054906101000a900473ffffffffffffffffffffffffffffffffffffffff1673ffffffffffffffffffffffffffffffffffffffff163373ffffffffffffffffffffffffffffffffffffffff1614610341576040517f08c379a000000000000000000000000000000000000000000000000000000000815260040161033890610888565b60405180910390fd5b600047905060008111610389576040517f08c379a0000000000000000000000000000000000000000000000000000000008152600401610380906108f4565b60405180910390fd5b60008060009054906101000a900473ffffffffffffffffffffffffffffffffffffffff1673ffffffffffffffffffffffffffffffffffffffff16826040516103d090610945565b60006040518083038185875af1925050503d806000811461040d576040519150601f19603f3d011682016040523d82523d6000602084013e610412565b606091505b5050905080610456576040517f08c379a000000000000000000000000000000000000000000000000000000000815260040161044d906109a6565b60405180910390fd5b5050565b60008054906101000a900473ffffffffffffffffffffffffffffffffffffffff1681565b60016020528060005260406000206000915054906101000a900460ff1681565b6000819050919050565b6104b18161049e565b82525050565b60006020820190506104cc60008301846104a8565b92915050565b600080fd5b6000819050919050565b6104ea816104d7565b81146104f557600080fd5b50565b600081359050610507816104e1565b92915050565b6105168161049e565b811461052157600080fd5b50565b6000813590506105338161050d565b92915050565b600080600060608486031215610552576105516104d2565b5b6000610560868287016104f8565b9350506020610571868287016104f8565b925050604061058286828701610524565b9150509250925092565b600073ffffffffffffffffffffffffffffffffffffffff82169050919050565b60006105b78261058c565b9050919050565b6105c7816105ac565b82525050565b60006020820190506105e260008301846105be565b92915050565b6000602082840312156105fe576105fd6104d2565b5b600061060c848285016104f8565b91505092915050565b60008115159050919050565b61062a81610615565b82525050565b60006020820190506106456000830184610621565b92915050565b600082825260208201905092915050565b7f5061796d656e7420616d6f756e74206d7573742062652067726561746572207460008201527f68616e2030000000000000000000000000000000000000000000000000000000602082015250565b60006106b860258361064b565b91506106c38261065c565b604082019050919050565b600060208201905081810360008301526106e7816106ab565b9050919050565b7f496e636f7272656374207061796d656e7420616d6f756e740000000000000000600082015250565b600061072460188361064b565b915061072f826106ee565b602082019050919050565b6000602082019050818103600083015261075381610717565b9050919050565b6000819050919050565b610775610770826104d7565b61075a565b82525050565b60006107878285610764565b6020820191506107978284610764565b6020820191508190509392505050565b7f5061796d656e7420616c72656164792070726f63657373656400000000000000600082015250565b60006107dd60198361064b565b91506107e8826107a7565b602082019050919050565b6000602082019050818103600083015261080c816107d0565b9050919050565b600060408201905061082860008301856104a8565b61083560208301846104a8565b9392505050565b7f4e6f74206f776e65720000000000000000000000000000000000000000000000600082015250565b600061087260098361064b565b915061087d8261083c565b602082019050919050565b600060208201905081810360008301526108a181610865565b9050919050565b7f4e6f2066756e647320746f207769746864726177000000000000000000000000600082015250565b60006108de60148361064b565b91506108e9826108a8565b602082019050919050565b6000602082019050818103600083015261090d816108d1565b9050919050565b600081905092915050565b50565b600061092f600083610914565b915061093a8261091f565b600082019050919050565b600061095082610922565b9150819050919050565b7f5472616e73666572206661696c65640000000000000000000000000000000000600082015250565b6000610990600f8361064b565b915061099b8261095a565b602082019050919050565b600060208201905081810360008301526109bf81610983565b905091905056fea26469706673582212202db3d70933d2f1c81667e5931877f91acb25fd04a346df4a32c78fcb5999e7bd64736f6c634300081c0033",
  "linkReferences": {},
  "deployedLinkReferences": {}
}