{
  "_format": "hh-sol-artifact-1",
  "contractName": "QRPaymentContract",
  "sourceName": "contracts/Wallet.sol",
  "abi": [
    {
      "inputs": [],
      "stateMutability": "nonpayable",
      "type": "constructor"
    },
    {
      "anonymous": false,
      "inputs": [
        {
          "indexed": true,
          "internalType": "bytes32",
          "name": "paymentId",
          "type": "bytes32"
        },
        {
          "indexed": true,
          "internalType": "address",
          "name": "from",
          "type": "address"
        },
        {
          "indexed": false,
          "internalType": "uint256",
          "name": "amount",
          "type": "uint256"
        },
        {
          "indexed": false,
          "internalType": "uint256",
          "name": "timestamp",
          "type": "uint256"
        }
      ],
      "name": "PaymentReceived",
      "type": "event"
    },
    {
      "inputs": [],
      "name": "getBalance",
      "outputs": [
        {
          "internalType": "uint256",
          "name": "",
          "type": "uint256"
        }
      ],
      "stateMutability": "view",
      "type": "function"
    },
    {
      "inputs": [
        {
          "internalType": "bytes32",
          "name": "paymentId",
          "type": "bytes32"
        }
      ],
      "name": "isPaymentProcessed",
      "outputs": [
        {
          "internalType": "bool",
          "name": "",
          "type": "bool"
        }
      ],
      "stateMutability": "view",
      "type": "function"
    },
    {
      "inputs": [],
      "name": "owner",
      "outputs": [
        {
          "internalType": "address",
          "name": "",
          "type": "address"
        }
      ],
      "stateMutability": "view",
      "type": "function"
    },
    {
      "inputs": [
        {
          "internalType": "bytes32",
          "name": "paymentId",
          "type": "bytes32"
        }
      ],
      "name": "payForTariff",
      "outputs": [],
      "stateMutability": "payable",
      "type": "function"
    },
    {
      "inputs": [
        {
          "internalType": "bytes32",
          "name": "",
          "type": "bytes32"
        }
      ],
      "name": "processedPayments",
      "outputs": [
        {
          "internalType": "bool",
          "name": "",
          "type": "bool"
        }
      ],
      "stateMutability": "view",
      "type": "function"
    },
    {
      "inputs": [],
      "name": "withdrawAll",
      "outputs": [],
      "stateMutability": "nonpayable",
      "type": "function"
    }
  ],
  "bytecode": "0x6080604052348015600f57600080fd5b50336000806101000a81548173ffffffffffffffffffffffffffffffffffffffff021916908373ffffffffffffffffffffffffffffffffffffffff1602179055506108c38061005f6000396000f3fe6080604052600436106100555760003560e01c806312065fe01461005a5780634a0ea4d714610085578063853828b6146100c25780638da5cb5b146100d9578063f3f247eb14610104578063fa43984e14610141575b600080fd5b34801561006657600080fd5b5061006f61015d565b60405161007c91906104b6565b60405180910390f35b34801561009157600080fd5b506100ac60048036038101906100a7919061050c565b610165565b6040516100b99190610554565b60405180910390f35b3480156100ce57600080fd5b506100d761018f565b005b3480156100e557600080fd5b506100ee610336565b6040516100fb91906105b0565b60405180910390f35b34801561011057600080fd5b5061012b6004803603810190610126919061050c565b61035a565b6040516101389190610554565b60405180910390f35b61015b6004803603810190610156919061050c565b61037a565b005b600047905090565b60006001600083815260200190815260200160002060009054906101000a900460ff169050919050565b60008054906101000a900473ffffffffffffffffffffffffffffffffffffffff1673ffffffffffffffffffffffffffffffffffffffff163373ffffffffffffffffffffffffffffffffffffffff161461021d576040517f08c379a000000000000000000000000000000000000000000000000000000000815260040161021490610628565b60405180910390fd5b600047905060008111610265576040517f08c379a000000000000000000000000000000000000000000000000000000000815260040161025c90610694565b60405180910390fd5b60008060009054906101000a900473ffffffffffffffffffffffffffffffffffffffff1673ffffffffffffffffffffffffffffffffffffffff16826040516102ac906106e5565b60006040518083038185875af1925050503d80600081146102e9576040519150601f19603f3d011682016040523d82523d6000602084013e6102ee565b606091505b5050905080610332576040517f08c379a000000000000000000000000000000000000000000000000000000000815260040161032990610746565b60405180910390fd5b5050565b60008054906101000a900473ffffffffffffffffffffffffffffffffffffffff1681565b60016020528060005260406000206000915054906101000a900460ff1681565b600034116103bd576040517f08c379a00000000000000000000000000000000000000000000000000000000081526004016103b4906107d8565b60405180910390fd5b6001600082815260200190815260200160002060009054906101000a900460ff161561041e576040517f08c379a000000000000000000000000000000000000000000000000000000000815260040161041590610844565b60405180910390fd5b600180600083815260200190815260200160002060006101000a81548160ff0219169083151502179055503373ffffffffffffffffffffffffffffffffffffffff16817fb84982556d7cb15bbbde57cf4d92e7e35098afd173f6b52783916ffd21f49fab3442604051610492929190610864565b60405180910390a350565b6000819050919050565b6104b08161049d565b82525050565b60006020820190506104cb60008301846104a7565b92915050565b600080fd5b6000819050919050565b6104e9816104d6565b81146104f457600080fd5b50565b600081359050610506816104e0565b92915050565b600060208284031215610522576105216104d1565b5b6000610530848285016104f7565b91505092915050565b60008115159050919050565b61054e81610539565b82525050565b60006020820190506105696000830184610545565b92915050565b600073ffffffffffffffffffffffffffffffffffffffff82169050919050565b600061059a8261056f565b9050919050565b6105aa8161058f565b82525050565b60006020820190506105c560008301846105a1565b92915050565b600082825260208201905092915050565b7f4e6f74206f776e65720000000000000000000000000000000000000000000000600082015250565b60006106126009836105cb565b915061061d826105dc565b602082019050919050565b6000602082019050818103600083015261064181610605565b9050919050565b7f4e6f2066756e647320746f207769746864726177000000000000000000000000600082015250565b600061067e6014836105cb565b915061068982610648565b602082019050919050565b600060208201905081810360008301526106ad81610671565b9050919050565b600081905092915050565b50565b60006106cf6000836106b4565b91506106da826106bf565b600082019050919050565b60006106f0826106c2565b9150819050919050565b7f5472616e73666572206661696c65640000000000000000000000000000000000600082015250565b6000610730600f836105cb565b915061073b826106fa565b602082019050919050565b6000602082019050818103600083015261075f81610723565b9050919050565b7f5061796d656e7420616d6f756e74206d7573742062652067726561746572207460008201527f68616e2030000000000000000000000000000000000000000000000000000000602082015250565b60006107c26025836105cb565b91506107cd82610766565b604082019050919050565b600060208201905081810360008301526107f1816107b5565b9050919050565b7f5061796d656e7420616c72656164792070726f63657373656400000000000000600082015250565b600061082e6019836105cb565b9150610839826107f8565b602082019050919050565b6000602082019050818103600083015261085d81610821565b9050919050565b600060408201905061087960008301856104a7565b61088660208301846104a7565b939250505056fea2646970667358221220de047d9273e455fa03deed1c12af45a71612985c6ced1047f8b4d45b5ec5eaaf64736f6c634300081c0033",
  "linkReferences": {},
  "deployedLinkReferences": {}
}